:040000000C94BB1091
:040038000C94923959
:040070000C94E63ACC
:040078000C94833B26
:0400A8000C945F460F
:040124000C943146C0
:08015C000C9440390C94E53BC2
:040168000C94CB40E8
:1402000025114B1E6C2DAE30AE30AE30AE30AE30AE30AE30A0
:14021400AE30AE30772DAE30AE30AE30AE30AE30AE30AE3064
:14022800AE30AE30822D902DA62DC22DED2D0E2E3B2E672E84
:14023C00822E8D2EA52EBD2ED52EED2E052F1D2FAE30352FA5
:140250004D2F582FA13309343034523474349634D833C0332C
:14026400BB34E034A83305352A35C1301F28CB286828802AAA
:14027800B739773B8C31B5580D65726173696E670D000D6591
:14028C0072617365640D00002C2C00000000000000002C00BE
:1402A00000000000000000002C2C2C000000000000000000C6
:1402B4000000415445300D000000000000000000000000001F
:1402C800000000000000000000000000000000000000000022
:1402DC00000000000000000000000000000000000041542356
:1402F00053455256494E464F0D000000000000000000000081
:140304000000000000000000000000000000000000000000E5
:140318000000000000000000000000000D41540D0000000022
:14032C000000000000000000000000000000000000000000BD
:140340000000000000000000000000000000000000000000A9
:140354000000000000000041542B4346554E3D310D0000002E
:14036800000000000000000000000000000000000000000081
:14037C0000000000000000000000000000000000000000006D
:14039000000041542B434744434F4E543D20312C27495027F6
:1403A4002C27696E7465726E6574272C27302E312E312E30C3
:1403B800272C302C300D00000000000000000000004154238D
:1403CC005553455249443D20276775657374270D0000000071
:1403E000000000000000000000000000000000000000000009
:1403F4000000000000000000000000004154235041535357AF
:140408003D20276775657374270D0000000000000000000000
:14041C000000000000000000000000000000000000000000CC
:1404300000000000000000415423504B54535A3D2033303074
:140444000D0000000000000000000000000000000000000097
:14045800000000000000000000000000000000000000000090
:14046C0000004154234453544F3D2035300D000000000000BB
:14048000000000000000000000000000000000000000000068
:1404940000000000000000000000000000000000004154239C
:1404A800534B54544F3D203930300D000000000000000000A8
:1404BC0000000000000000000000000000000000000000002C
:1404D000000000000000000000000000415423534B544354D7
:1404E4003D203630300D000000000000000000000000000004
:1404F8000000000000000000000000000000000000000000F0
:14050C0000000000000000415423534B545341560D0000003A
:140520000000000000000000000000000000000000000000C7
:140534000000000000000000000000000000000000000000B3
:140548000000415423475052533D20310D0000000000000010
:14055C0000000000000000000000000000000000000000008B
:140570000000000000000000000000000000000000415423BF
:14058400534B54443D20302C32352C27736D74702E766F647F
:1405980061666F6E652E6E65742E6E7A272C302C300D0000CF
:1405AC0000000000000000000000000048454C4F0D0A0000FC
:1405C000000000000000000000000000000000000000000027
:1405D400000000000000000000000000000000000000000013
:1405E800000000000000004D41494C2046524F4D3A2070734B
:1405FC0061662E6465766963650D0A0000000000000000006F
:140610000000000000000000000000000000000000000000D6
:1406240000005243505420544F3A20707361662E64657669EC
:14063800636540676D61696C2E636F6D0D0A00000000000018
:14064C000000000000000000000000000000000000444154C1
:14066000410D0A00000000000000000000000000000000002E
:14067400000000000000000000000000000000000000000072
:1406880000000000000000000000000046726F6D3A203C50E4
:14069C00534146206465766963653E0D0A000000000000008B
:1406B000000000000000000000000000000000000000000036
:1406C40000000000000000546F3A203C707361662E646576B2
:1406D80069636540676D61696C2E636F6D3E0D0A00000000D1
:1406EC000000000000000000000000000000000000000000FA
:1407000000005375626A6563743A205053414620436F6E74DD
:14071400726F6C6C657220546573740D0A000000000000006A
:1407280000000000000000000000000000000000000D0A00A6
:14073C000000000000000000000000000000000000000000A9
:14075000000000000000000000000000000000000000000095
:140764000000000000000000000000000D0A2E0D0A00000025
:1407780000000000000000000000000000000000000000006D
:14078C00000000000000000000000000000000000000000059
:1407A00000000000000000515549540D0A00000000000000EB
:1407B400000000000000000000000000000000000000000031
:1407C80000000000000000000000000000000000000000001D
:1407DC0000002B2B2B0D0A0000000000000000000000000071
:1407F0000000000000000000000000000000000000000000F5
:14080400000000000000000000000000000000000041542B20
:14081800434D47463D310D0000000000000000000000000034
:14082C000000000000000000000000000000000000000000B8
:140840000000000000000000000000002C0000000000000078
:14085400000000000000000000000000000000000000000090
:1408680000000000000000000000000000000000000000007C
:14087C0000000000000000415424475053503D310D000000FA
:14089000000000000000000000000000000000000000000054
:1408A400000000000000000000000000000000000000000040
:1408B8000000415424475053523D310D0000000000000000BC
:1408CC00000000000000000000000000000000000000000018
:1408E00000000000000000000000000000000000004154244B
:1408F4004750534143500D0000000000000000000000000025
:140908000000000000000000000000000000000000000000DB
:14091C00000000000000000000000000415424475053503D97
:14093000300D00000000000000000000000000000000000076
:1409440000000000000000000000000000000000000000009F
:14095800000000000000002C2C000000000000000000000033
:14096C00000000000000000000000000000000000000000077
:14098000000000000000000000000000000000000000000063
:14099400000041542B435343413F0D00000000000000000029
:1409A80000000000000000000000000000000000000000003B
:1409BC00000000000000000000000000000000000041542B67
:1409D000434D47533D000000000000000000000000000000AC
:1409E4000000000000000000000000000000000000000000FF
:1409F80000000000000000000000000041542B434744434FCB
:140A0C004E54203D20312C274950272C27696E7465726E652B
:140A2000742E67707273272C27302E302E302E30272C302CF1
:140A3400300D0000000000415423534346473D312C312C336C
:140A480030302C39302C3630302C35300D0000000000000045
:140A5C00000000000000000000000000000000000000000086
:140A7000000041542353474143543D312C312C2745415359F8
:140A84002047505253272C27454153592047505253270D00C6
:140A9800000000000000000000000000000000000041542392
:140AAC0053443D312C20302C32352C27736D7470322E766FC6
:140AC0006461666F6E652E6E65742E6E7A272C302C300D003E
:140AD40000000000000000000000000048454C4F2070637083
:140AE800726F76610D0A00000000000000000000000000002B
:140AFC000000000000000000000000000000000000000000E6
:140B1000000000000000004D41494C2046524F4D3A2070731D
:140B240061662E64657669636540766F6461666F6E652E6E2A
:140B380065742E6E7A200D0A00000000000000000000000083
:140B4C0000005243505420544F3A20707361662E64657669BF
:140B6000636540676D61696C2E636F6D200D0A0000000000CB
:140B74000000000000000000000000000000000000415423B5
:140B880053483D310D00000000000000000000000000000043
:140B9C00000000000000000000000000000000000000000045
:140BB0000000000000000000000000005243505420544F3AFB
:140BC40020707361662E64657669636540766F6461666F6E88
:140BD800652E6E65742E6E7A200D0A000000000000000000E2
:140BEC000000000000000000000000000000000000000000F5
:140C00000000000000000000000000000000000000000000E0
:140C14000000000000000000000000000000000000000000CC
:140C280000004750525320486F75727320000000000000002B
:140C3C000000000000000000000000000000000000000000A4
:140C50000000000000000000000000000000000000536F6668
:140C6400747761726520377635300D446174652C54696D65E1
:140C78002C000000000000000000000000000000000000003C
:140C8C000000000000000000000000002B4F4B20000000006F
:140CA000000000000000000000000000000000000000000040
:140CB40000000000000000000000000000000000000000002C
:140CC8000000000000000041542447505350533D300D000058
:140CDC00000000000000000000000000000000000000000004
:140CF0000000000000000000000000000000000000000000F0
:140D0400000041542B434D47443D312C340D00000000000025
:140D18000000000000000000000000000000000000000000C7
:140D2C000000000000000000000000000000000000416363AC
:140D4000656C582C416363656C592C000000000000000000ED
:140D540000000000000000000000000000000000000000008B
:140D6800000000000000000000000000426174566F6C74615A
:140D7C0067652C00000000000000000000000000000000006B
:140D900000000000000000000000000000000000000000004F
:140DA4000000000000000047656E566F6C74616765312C47AB
:140DB800656E566F6C74616765322C00000000000000000024
:140DCC00000000000000000000000000000000000000000013
:140DE00000004C6F6164437274312C4C6F6164437274322CF2
:140DF4000000000000000000000000000000000000000000EB
:140E08000000000000000000000000000000000000576176A8
:140E1C00654865696768742C000000000000000000000000D8
:140E30000000000000000000000000000000000000000000AE
:140E44000000000000000000000000004879647261756C6958
:140E580063312C4879647261756C6963322C000000000000C3
:140E6C00000000000000000000000000000000000000000072
:140E8000000000000000002B434D53204552524F523A203319
:140E94003231000000000000000000000000000000000000E7
:140EA800000000000000000000000000000000000000000036
:140EBC0000004F4B0000000000000000000000000000000088
:140ED00000000000000000000000000000000000000000000E
:140EE400000000000000000000000000000000000032323066
:140EF8000000000000000000000000000000000000000000E6
:140F0C000000000000000000000000000000000000000000D1
:140F2000000000000000000000000000323530000000000026
:140F34000000000000000000000000000000000000000000A9
:140F4800000000000000000000000000000000000000000095
:140F5C000000000000000033353400000000000000000000E5
:140F700000000000000000000000000000000000000000006D
:140F8400000000000000000000000000000000000000000059
:140F98000000323231000000000000000000000000000000B0
:140FAC00000000000000000000000000000000000000000031
:140FC0000000000000000000000000000000000000434F4E3D
:140FD4004E45435400000000000000000000000000000000DF
:140FE8000000000000000000000000000000000000000000F5
:140FFC000000000000000000000000004552524F5200000057
:141010000000000000000000000000000000000000000000CC
:141024000000000000000000000000000000000000000000B8
:14103800000000000000002D4552520000000000000000008E
:14104C00000000000000000000000000000000000000000090
:1410600000000000000000000000000000000000000000007C
:14107400000000000000000000000000000000000000000068
:14108800000000000000000000000000000000000000000054
:14109C000000000000000000000000000000000000486F7514
:1410B00073696E6754656D702C0000000000000000000000B9
:1410C400000000000000000000000000000000000000000018
:1410D800000000000000000000000000000000000000000004
:1410EC000000000000000000000000000000000000000000F0
:141100000000000000000000000000000000000000000000DB
:141114000000000000000000000000000000000000000000C7
:141128000000000000000000000000000000000000000000B3
:14113C0000000000000000000000000000000000000000009F
:1411500000000000000000000000000000000000000000008B
:14116400000000000000000000000000000000000000000077
:14117800000000000000000000000000000000000000000063
:14118C0000000000000000000000000000000000000000004F
:1411A00000000000000000000000000000000000000000003B
:1411B40000000000000000000000000041542B434D474C3D07
:1411C8002752454320554E52454144270D00000000000000FF
:1411DC000000000000000000000000000000000000000000FF
:1411F0000000000000000000000000000000000000000000EB
:141204000000000000000000000000000000000000000000D6
:141218000000000000000000000000000000000000000000C2
:14122C000000000000000000000000000000000000000000AE
:1412400000000000000000000000000000000000000000009A
:14125400000000000000000000000000000000000000000086
:14126800000000000000000000000000000000000000000072
:14127C0000000000000000000000000000000000000000005E
:1412900000000000000000000000000000000000000000004A
:1412A400000000000000000000000000000000000000000036
:1412B800000000000000000000000000000000000000000022
:1412CC0000000000000000000000000000000000000000000E
:1412E0000000000000000000000000000000000000000000FA
:1412F4000000000000000000000000000000000000000000E6
:141308000000000000000000000000000000000000000000D1
:14131C000000000000000000000000000000000000000000BD
:1413300000000000000000000000000000000000002B434DEE
:141344004753000000000000000000000000000000000000FB
:14135800000000000000000000000000000000000000000081
:14136C000000000000000000000000000D0A505341462044C8
:1413800065766963650D000000000000000000000000000040
:14139400000000000000000000000000000000000000000045
:1413A8000000000000000052656C6179203120636C6F7365AD
:1413BC00640D000000000000000000000000000000000000AC
:1413D000000000000000000000000000000000000000000009
:1413E4000000506167657320000000000000000000000000E5
:1413F8000000000000000000000000000000000000000000E1
:14140C000000000000000000000000000000000000416E67B6
:141420006C652C0000000000000000000000000000000000BB
:141434000000000000000000000000000000000000000000A4
:14144800000000000000000000000000456E65726779200006
:14145C0000000000000000000000000000000000000000007C
:14147000000000000000000000000000000000000000000068
:14148400000000000000005065616B200000000000000000B3
:14149800000000000000000000000000000000000000000040
:1414AC0000000000000000000000000000000000000000002C
:1414C000000053616D706C65204A6F756C6573200000000004
:1414D400000000000000000000000000000000000000000004
:1414E8000000000000000000000000000000000000000000F0
:1414FC000000000000000000000000000000000000000000DC
:141510000000000000000000000000000000000000000000C7
:1415240000000000000000000000000052656C617920312045
:141538006F70656E0D000000000000000000000000000000E0
:14154C0000000000000000000000000000000000000000008B
:141560000000000000000052656C6179203220636C6F7365F2
:14157400640D000000000000000000000000000000000000F2
:1415880000000000000000000000000000000000000000004F
:14159C00000052656C61792032206F70656E0D00000000000D
:1415B000000000000000000000000000000000000000000027
:1415C400000000000000000000000000000000000000000013
:1415D8000000000000000000000000000000000000000000FF
:1415EC000000000000000000000000000000000000000000EB
:141600000000000000000000000000000000000000000000D6
:141614000000000000000000000000000000000000000000C2
:141628000000000000000000000000000000000000000000AE
:14163C0000000000000000576174657254656D702C000000D5
:14165000000000000000000000000000000000000000000086
:14166400000000000000000000000000000000000000000072
:1416780000000000000000000000000000000000000000005E
:14168C0000000000000000000000000000000000000000004A
:1416A00000000000000000000000000000000000004E4F2079
:1416B40043415252494552000000000000000000000000001A
:1416C80000000000000000000000000000000000000000000E
:1416DC000000000000000000000000000000000000000000FA
:1416F0000000000000000000000000000000000000000000E6
:141704000000000000000000000000000000000000000000D1
:141718000000000000000000000000000000000000000000BD
:14172C000000000000000000000000000000000000000000A9
:14174000000000000000000000000000000000000000000095
:14175400000000000000000000000000000000000000000081
:1417680000000000000000000000000000000000000000006D
:14177C00000000000000000000000000000000000000000059
:14179000000000000000000000000000000000000000000045
:1417A400000000000000000000000000000000000000000031
:1417B80000000000000000000000000000000000000000001D
:1417CC00000000000000000000000000000000000000000009
:1417E0000000000000000000000000000000000000000000F5
:1417F4000000000000000000000000000000000000000000E1
:141808000000000000000000000000000000000000000000CC
:14181C000000000000000000000000000000000000000000B8
:141830000000000000000000000000000000000000000000A4
:14184400000000000000000000000000000000000000000090
:1418580000000000000000000000000000000000000000007C
:14186C00000000000000000000000000000000000000000068
:14188000000000000000000000000000000000000000000054
:14189400000000000000000000000000000000000000000040
:1418A80000000000000000000000000000000000000000002C
:1418BC00000000000000000000000000000000000000000018
:1418D0000000000000000052656C6179312C52656C6179327B
:1418E4002C00000000000000000000000000000000000000C4
:1418F8000000000000000000000000000000000000000000DC
:14190C00000000000000000020413A726C7973000000000062
:141920000000000000000000000000000000000000000000B3
:141934003A65706167000000000000000000000000000000C8
:14194800000000000000000000003A656E756D00000000009C
:14195C00000000000000000000000000000000000000000077
:141970003A6568727300000000000000000000000000000077
:14198400000000000000000000003A70617261000000000071
:1419980000000000000000000000000000000000000000003B
:1419AC00000000000000000000000000000000000000000027
:1419C000000000000000000000000000000000000000000013
:1419D4000000000000000000000000000000000000000000FF
:1419E8000000000000000000000000000000000000000000EB
:1419FC000000000000000000000000000000000000000000D7
:141A10000000000000000000000000000000000000000000C2
:141A24000000000000000000000000000000000000000000AE
:141A3800000000000000000000003E0000000000000000005C
:141A4C00000000000000000000000000000000000000000086
:141A6000000000000000000000000000000000000000000072
:141A740000000000000000000000000000000000000000005E
:141A880000000000000000000000000000000000000000004A
:141CF4002B434D474C3A000000000000000000000000000054
:141D08000000000000000000000000000000000000000000C7
:141D1C000000000000000000000000000000000000000000B3
:141D30002B3634323136353134303500000000000000000072
:141D440000000000000000000000000000000000000000008B
:141D5800000000000000000000000000000000000000000077
:141D6C00000000000000000000000000000000000000000063
:141D800000000000000000000000000000000000000000004F
:141D940000000000000000000000000000000000000000003B
:141DA800000000000000000000000000000000000000000027
:141DBC00000000000000000000000000000000000000000013
:141DD0000000000000000000000000000000000000000000FF
:141DE4000000000000000000000000000000000000000000EB
:141DF8000000000000000000000000000000000000000000D7
:141E0C000000000000000000000000000000000000000000C2
:141E20000000204100007A4400000000DA032D3C0000000049
:141E34009C33223D000000400040CE4443AD014000BCCD44DC
:141E4800651902409AE9CF443333333F0000803F286E756C22
:141E5C006C20707472207061737365642900000000000020A7
:141E700020202020202020203030303030202020202020208E
:141E840020202020202020202020209040404040404040405A
:141E9800404040404040400C0C0C0C0C0C0C0C0C0C4040403E
:141EAC004040404009090909090901010101010101010101E2
:141EC000010101010101010101014040404040400A0A0A0A5C
:141ED4000A0A020202020202020202020202020202020202C2
:141EE8000202404040402000000000000000000000000000C2
:141EFC000000000000000000000000000000000000000000D2
:141F10000000000000000000000000000000000000000000BD
:141F24000000000000000000000000000000000000000000A9
:141F3800000000000000000000000000000000000000000095
:141F4C00000000000000000000000000000000000000000081
:141F600000000000000000000000000000000066746F6120A3
:141F74006572726F723A206E756D62657220746F6F206269EF
:141F8800670066746F61206572726F723A206E756D62657207
:141F9C0020746F6F20736D616C6C0066746F61206572726F04
:141FB000723A20756E6578706563746564206572726F7200D2
:141FC4000000003F17B7D138000020410000803F000080BF94
:141FD800000000000D2573002C25642C2564002C25312E3204
:141FEC0066002C25312E32662C25312E32662C25312E3266A3
:14200000002C25312E32662C25312E3266002C25642C2564D2
:142014002C2564000D253032642D253032642D25642C2530BC
:1420280032643A253032643A253032642E2530326400257313
:14203C000D253032642D253032642D253032642C2530326451
:142050003A253032643A253032642E25642C25312E32662C07
:1420640025312E32662C25312E32662C25312E32662C25313A
:142078002E32662C25312E32662C25312E32662C25312E321C
:14208C00662C25312E32662C25312E32662C25312E32662CD6
:1420A00025312E32662C25312E32662C25312E32662C2531FE
:1420B4002E32662C25312E32662C25312E32662C25642C25BC
:1420C8006400253032642530326425303264253032642E7452
:1420DC007874002573202563002573670025737200257361C2
:1420F0000025736800257377002573780025736900257376AE
:14210400002573620025732573256C646B4A0D0025732573B6
:1421180025640D0025732573256668720D0025732573002526
:14212C007300257325730D00257325640D00257325666872C4
:142140000D002573256C644A2028256C64290D002573256611
:142154006B570D002573256C646B4A0D000000000000000059
:142168000025632573256300000000182000CFEFDFE3CDBF77
:14217C00DEBFCE51D0400AEA08830024AAE9B1E21CE2AD3CD3
:14219000B10711F00D92FBCF0C9300E00BBFECEDFFE1A0E097
:1421A400B0E211E2E637F10719F005900D92FACF00C00E9425
:1421B8009B36FFCF88E0809385068AE090E08093B229909383
:1421CC00B32980E1809386062090B2293090B3292220D1F7F2
:1421E0003320C1F780E180938506222433242092AA293092FD
:1421F400AB298091A729877F8093A72980618093A72900E095
:1422080012E00E94CA47009322220895AA92BA925801950132
:14221C0001EA11E20E94164E8091A72982608093A729209074
:14223000222283E0829D81EF92E2F001E80FF91F81E080838C
:14224400B990A9900895AA924AD0002309F042C08091A72912
:1422580099279595879595958795817090708030890711F0F4
:14226C007DD034C08091A729817011F075D12EC08091A72935
:14228000992795958795817090708030890721F1AA2409C06A
:1422940081EA91E2EA2DFF27E80FF91F0081C5D0A39401EAD4
:1422A80011E20E941F4E2A2C33242016310670F38091A729C2
:1422BC008D7F8093A7292090222283E0829D81EF92E2F001D4
:1422D000E80FF91F2224208288E080938506A9900895289768
:1422E40080E0888389838A838B83A8952CD007FF27C0288086
:1422F80039804A805B802C823D824E825F8281E090E0A0E005
:14230C00B0E02C803D804E805F80280E391E4A1E5B1E2882FF
:1423200039824A825B8280E49DE0A3E0B0E02C803D804E801A
:142334005F80281639064A065B0614F4002701C00FEF2896DC
:142348000895AA9288E08093860607ED0E945E390E94713928
:14235C00A02E88E080938506A9900895239780919A2190911C
:142370009B218030E2E09E0760F588E08093860600E50E94A3
:142384005E3900919A2110919B2116950795169507951695CC
:1423980007950E945E3925E030E000919A2110919B210E94FC
:1423AC002E500E945E3900270E945E3988E0809385068091EF
:1423C0009A2190919B21019680939A2190939B212CC02224FB
:1423D400332420929A2130929B212092AA293092AB292092E6
:1423E800AC293092AD292A8282E088832091AC293091AD293E
:1423FC0004E210E00E9467188091A7298B7F8093A729806127
:142410008093A7292090222283E0829DF00181EF92E2E80F93
:14242400F91F2224208223960895AA92A02E239756DF002332
:14243800E9F788E08093860684E08093850680919C21813028
:14244C0021F404E80E945E3903C007E80E945E3900270E948E
:142460005E390091AA291091AB29012F11270E945E390091C6
:14247400AA291091AB290E945E390A2D0E945E3988E08093E8
:1424880085068091AA299091AB2901961C012092AA293092E1
:14249C00AB2980E092E08215930508F05AC0222433242092F6
:1424B000AA293092AB292090B6293090B7294090AC295090FB
:1424C400AD2942145304C0F588E08093860680919C21813046
:1424D80039F403E80E945E3982E080939C2106C006E80E9417
:1424EC005E3981E080939C2126E030E00091AC291091AD2921
:142500000E9441500E945E390091AC291091AD29000F111F3F
:14251400000F111F0E945E3900270E945E3988E080938506D5
:142528008091AC299091AD2901968093AC299093AD2905C085
:14253C008091A729877F8093A72922242A8282E088832091B1
:14255000AC293091AD2904E210E00E9467182396A990089585
:1425640065972090AE293090AF2940909E2150909F214214C3
:14257800530420F420929E2130929F2120909D21222019F434
:14258C0081E080939D212090B0293090B1294090AE2950905F
:1425A000AF29420C531C20909E2130909F2124143504F0F44E
:1425B400910100919D2135D000919D215BD080919D21813033
:1425C80021F48F5F80939D2105C080919D21815080939D21F5
:1425DC0080919E2190919F21019680939E2190939F2119C015
:1425F0002224332420929E2130929F2181E080939D21809104
:14260400A7298E7F8093A7292090222283E0829DF00181EF2B
:1426180092E2E80FF91F22242082659608950E94984F5901C8
:14262C00402F59DE0023E9F788E080938606413021F403E57C
:142640000E945E3903C005E50E945E3926E030E085010E9429
:1426540041500E945E398501000F111F000F111F0E945E396B
:1426680000270E945E3988E0809385060C949D4F0E94A24FD9
:14267C00602F40E052E02FDE0023E9F788E0809386066130C1
:1426900021F404ED0E945E3903C006ED0E945E3900270E943F
:1426A4005E3900270E945E3900270E945E3900270E945E396B
:1426B8000E9471390093A021BA014150504060306707B1F7EC
:1426CC0088E0809385060C94A74FEF97EF97A5978091A72935
:1426E0009927959587959595879595958795817090708030B3
:1426F400890709F42DC220904B2785E0829D0C861D862090CB
:142708004A2733242A863B86209049273324288639862090F0
:14271C00482733242E823F8280914E2799278053984F8C8363
:142730009D8320904D2733242A823B8220904C27332428826D
:1427440039822CE330E28E010D5D1F4F0E94BF582090A82904
:142758003090A92921FE1AC02090C6293090C7292C823D8226
:14276C002090C4293090C5292A823B822090C2293090C3295E
:142780002882398222E330E28E01025F1F4F0E94BF5807C0EB
:1427940028EA32E08E01025F1F4F0E94E8539E01225F3F4F24
:1427A8008E010D5D1F4F0E94094E2090A8293090A92920FE8C
:1427BC0020C04090C0295090C1292090BE293090BF292C82B9
:1427D0003D824E825F824090BC295090BD292090BA293090B7
:1427E400BB29288239824A825B8225E230E28E01025F1F4F78
:1427F8000E94BF5807C024E932E08E01025F1F4F0E94E853F3
:14280C009E01225F3F4F8E010D5D1F4F0E94094E2090A82929
:142820003090A92925FE2CC04090D6295090D7292090D429A7
:142834003090D529288639864A865B864090DA295090DB29FD
:142848002090D8293090D9292C823D824E825F824090DE2914
:14285C005090DF292090DC293090DD29288239824A825B82F7
:1428700022E130E28E01025F1F4F0E94BF5807C028EA32E03D
:142884008E01025F1F4F0E94E8539E01225F3F4F8E010D5D5E
:142898001F4F0E94094E2090A8293090A92922FE14C04090EE
:1428AC00CA295090CB292090C8293090C929288239824A82CD
:1428C0005B822BE030E28E01025F1F4F0E94BF5807C02EE915
:1428D40032E08E01025F1F4F0E94E8539E01225F3F4F8E0166
:1428E8000D5D1F4F0E94094E2090A8293090A92923FE18C0FF
:1428FC004090CE295090CF292090CC293090CD292C823D8261
:142910004E825F82288239824A825B8225E230E28E01025FEB
:142924001F4F0E94BF5807C024E932E08E01025F1F4F0E9492
:14293800E8539E01225F3F4F8E010D5D1F4F0E94094E209092
:14294C00A8293090A92924FE20C04090EA295090EB2920908B
:14296000E8293090E9292C823D824E825F824090E6295090A3
:14297400E7292090E4293090E529288239824A825B8225E29F
:1429880030E28E01025F1F4F0E94BF5807C024E932E08E019D
:14299C00025F1F4F0E94E8539E01225F3F4F8E010D5D1F4F66
:1429B0000E94094E2090A8293090A92926FE14C04090E22934
:1429C4005090E3292090E0293090E129288239824A825B8282
:1429D8002BE030E28E01025F1F4F0E94BF5807C02EE932E0C7
:1429EC008E01025F1F4F0E94E8539E01225F3F4F8E010D5DF5
:142A00001F4F0E94094E2090A8293090A92927FE20C0409073
:142A1400F2295090F3292090F0293090F1292C823D824E82B7
:142A28005F824090EE295090EF292090EC293090ED29288295
:142A3C0039824A825B8225E230E28E01025F1F4F0E94BF58F2
:142A500007C024E932E08E01025F1F4F0E94E8539E01225F31
:142A64003F4F8E010D5D1F4F0E94094E2090A8293090A9295D
:142A780030FE14C04090F6295090F7292090F4293090F529AE
:142A8C00288239824A825B822BE030E28E01025F1F4F0E940B
:142AA000BF5807C02EE932E08E01025F1F4F0E94E8539E0141
:142AB400225F3F4F8E010D5D1F4F0E94094E2090A82930905E
:142AC800A92931FE18C02090A629822D9927959587958170FC
:142ADC0090708A839B83822D9927817090708883998324E030
:142AF00030E28E01025F1F4F0E94BF5807C024E932E08E0134
:142B0400025F1F4F0E94E8539E01225F3F4F8E010D5D1F4FFC
:142B18000E94094E209005282220A1F02090A8293090A929ED
:142B2C0032FE0EC086E098E28883998320E030E28E010D5D85
:142B40001F4F0E94BF582224209205288E010D5D1F4F60DB93
:142B5400EF96EF96A59608950E948D4F239701E010E07BD235
:142B6800002309F4A2C022242A8282E088832227332704E2EF
:142B7C0010E0A7D222242A8282E0888324E630E006E310E08A
:142B90009ED222242A8281E0888321E030E007E310E095D211
:142BA40022242A8281E0888321E030E008E310E08CD222242F
:142BB8002A8281E0888321E030E009E310E083D222242A82BD
:142BCC0081E0888321E030E00AE310E07AD222242A8281E0FC
:142BE000888321E030E00BE310E071D222242A8281E0888346
:142BF40021E030E00CE310E068D222242A8281E0888321E044
:142C080030E00DE310E05FD222242A8281E0888321E030E028
:142C1C000EE310E056D222242A8281E0888321E030E00FE33A
:142C300010E04DD222242A8281E0888321E030E002E410E03C
:142C440044D222242A8281E0888321E030E003E410E03BD213
:142C580022242A8282E08883222733270AE210E032D2222440
:142C6C002A8282E08883222733270CE210E029D222242A82CD
:142C800081E08883222733270DE210E020D222242A8281E00D
:142C94008883222733270EE210E017D222242A8281E0888357
:142CA8002227332701E010E00ED203E210E0D3D1A02E04E297
:142CBC0010E0CFD12A2C3324322C202E2092AC293092AD29FC
:142CD00005E310E0C4D1C02E06E310E0C0D1A02E2C2C3324AE
:142CE400322C2A2C2092B4293092B52907E310E0B4D1A02ECC
:142CF800A092B8292A2D33270091B4291091B5290E94324FF4
:142D0C000093B6291093B72908E310E0A2D1A02EA092B9298E
:142D200009E310E09CD1A02E8A2D992781709070880F991FD1
:142D3400880F991F84709070E091A829F091A929EB7FE82B36
:142D4800F92BE093A829F093A9290AE310E083D1A02E8A2D04
:142D5C00992781709070880F991F880F991F880F991F8870CD
:142D70009070E091A829F091A929E77FE82BF92BE093A829D9
:142D8400F093A9290BE310E068D1A02E8A2D99278170907099
:142D9800880F991F880F991F880F991F880F991F80719070FA
:142DAC00E091A829F091A929EF7EE82BF92BE093A829F09313
:142DC000A9290CE310E04BD125E030E01127017010700E9452
:142DD4002E50C80180729070E091A829F091A929EF7DE82B9E
:142DE800F92BE093A829F093A9290DE310E033D126E030E020
:142DFC001127017010700E942E50C80180749070E091A8297B
:142E1000F091A929EF7BE82BF92BE093A829F093A9290EE330
:142E240010E01BD127E030E01127017010700E942E50C80195
:142E380080789070E091A829F091A929EF77E82BF92BE093E9
:142E4C00A829F093A9290FE310E003D1A02E8A2D9927817060
:142E60009070982F882780709170E091A829F091A929FE7FE5
:142E7400E82BF92BE093A829F093A92902E410E0ECD029E0DF
:142E880030E01127017010700E942E50C80180709270E091B1
:142E9C00A829F091A929FD7FE82BF92BE093A829F093A929B2
:142EB00003E410E0D4D02AE030E01127017010700E942E5030
:142EC400C80180709470E091A829F091A929FB7FE82BF92BF7
:142ED800E093A829F093A92909E210E0BCD0C02E0AE210E01C
:142EEC00B8D0A02E88E090E0860197011127222733278A938D
:142F00000E943550180129016A2C772488249924260C371C34
:142F1400481C591C20929629309297294092982950929929A6
:142F280040E050E061E070E05A924A923A922A928A019B013D
:142F3C000E94424F00939629109397292093982930939929A0
:142F50000BE210E084D0C02E0CE210E080D0A02E88E090E07A
:142F6400860197011127222733278A930E94355018012901D8
:142F78006A2C772488249924260C371C481C591C809098297C
:142F8C00909099296090962970909729620C731C841C951C92
:142FA0006092962970929729809298299092992940E050E0A3
:142FB40060E070E064167506860697064CF480E080939629E9
:142FC80080939729809398298093992980E080939629809334
:142FDC009729809398298093992902EB12E00E941E4F0093F7
:142FF0009A2910939B2920939C2930939D2980E080939E2968
:1430040080939F298093A0298093A12980E08093A2298093D3
:14301800A3298093A4298093A5290DE210E01BD0A02E8A2DC8
:14302C00817081709091A6299E7F982B9093A6290EE210E00C
:143040000ED0A02E8A2D8170880F82709091A6299D7F982BD0
:143054009093A62923960C94824FAA92BA9258012397209001
:14306800CF0127FCFCCF81E090E0888399839E012E5F3F4FE4
:14307C0085010E9496502090CF0127FCFCCF0A812396B99037
:14309000A99008953A932A93AA92BA92580122972090CF01B2
:1430A40027FCFCCF81E090E0888399839E012C5F3F4F8501F4
:1430B8000E94B9502090CF0127FCFCCF2296B990A9902296F9
:1430CC0008950E94C84FB901A801A884CA84CC20C1F420906C
:1430E000CF0127FCFCCF9B0130708A01D3DF8A2D823009F043
:1430F4004AC02090CF0127FCFCCF9B01232F33278A0101502C
:143108001040C4DF3EC014E1009123220F5F0E94064F0093FF
:14311C00232284E292E2E02FFF27E80FF91FCB01907080836D
:1431300088E392E2E0912322FF27EE0FFF1FE80FF91F4083E3
:1431440051838A2D8230F9F414E1009123220F5F0E94064F1D
:143158000093232284E292E2E02FFF27E80FF91F1B01232C02
:14316C003324208288E392E2E0912322FF27EE0FFF1FE80F89
:14318000F91FCA010197808391830FEF0C94D14F4A9320905E
:14319400CF0127FC33C044272EC088E392E2E42FFF27EE0FD3
:1431A800FF1FE80FF91F20803180222011F43320F9F084E2AC
:1431BC0092E2E42FFF27E80FF91F208188E392E2E42FFF278A
:1431D000EE0FFF1FE80FF91F008111815BDF88E392E2E42F82
:1431E400FF27EE0FFF1FE80FF91F222433242082318246E16E
:1431F8004395443108F4CFCF4991089502E012E00E94CA47DE
:14320C000093E32208950E94934F289780E080931723809376
:1432200018238093192380931A2300E010E020E030E00E943E
:143234007A3885E393E25C01FC0120803324822D893E09F433
:1432480034C08B3E09F431C085E393E26C01FC01E250FE4F01
:14325C00808191818535EAEA9E0711F001E0C4C0C601825415
:143270009E4FFC012084318442845384209217233092182381
:143284004092192350921A2300851185228533850E947A383B
:1432980085E393E25C01FC01C080DD248C2D893E21F08B3E50
:1432AC0011F001E0A1C0F50123843484209211233092122399
:1432C0002584332420921323309214232684378420921523CA
:1432D4003092162324A435A446A457A42092092330920A2398
:1432E80040920B2350920C2324A035A046A057A0008911278A
:1432FC00222733275A924A923A922A920E94424F20901523B0
:143310003090162344245524F501648C758C868C978C620C45
:14332400731C841C951C600E711E821E931E6092052370924B
:143338000623809207239092082324A035A046A057A00089D0
:14334C001127222733275A924A923A922A920E94424FF50119
:143360002684378444245524B096608071808280938062186D
:14337400730884089508601A710A820A930A6C827D828E8286
:143388009F822090132330901423442455240C811D812E8178
:14339C003F815A924A923A922A920E949C4E00930D2310931B
:1433B0000E2320930F233093102380E0888389838A838B836B
:1433C400222701E0CED040900F235090102320900D23309078
:1433D8000E23201631064206530620F422242092E42203C0CD
:1433EC0081E08093E422002728960C94764F0E94514E0E9426
:14340000A24F42E050E060E070E00C811D812E813F81041B2C
:14341400150B260B370B2090132330901423442455245A9267
:143428004A923A922A920E94424F180129018090072390905C
:14343C0008236090052370900623260C371C481C591C810130
:1434500092010E94A74F249608950E94514E0E948D4F24976C
:14346400CA88EE2482E090E00E851F85288939898A930E94B5
:1434780035502090112330901223442455245A924A923A926D
:14348C002A920E949C4E209015233090162344245524809012
:1434A000192390901A236090172370901823620C731C841C7D
:1434B400951C600E711E821E931E688279828A829B8282E095
:1434C80090E00E851F85288939898A930E94355020901123AE
:1434DC0030901223442455245A924A923A922A920E949E4E28
:1434F00058010AC0088119812A813B810E947A38002309F4A7
:1435040004C0E3948E2D8A3098F385E393E2A80EB91ECC2022
:1435180071F44FEF5FEF6FEF7FE0F501008111812281338191
:14352C00042315232623372313C02C883D884E885F88F5018A
:143540002082318242825382088119812A813B810E94C7385E
:1435540000E010E020E030E024960E94824F249608950E945D
:14356800AC4FA22E602F45E353E281E090E0A0E0B0E0209106
:14357C00192330911A230091172310911823080F191F2A1FC2
:143590003B1F0E947A3882E592E5A1E6B1E4FA012080318033
:1435A40042805380281639064A065B0601F582E792E7A1E4F3
:1435B800B1E6EC51FE4F2080318042805380E45EF140281647
:1435CC0039064A065B0679F480E090E0A5E5BAEAE450FE4F0F
:1435E0002080318042805380281639064A065B0629F00FEFAC
:1435F4001FEF2FEF3FEF44C0AA2091F4613041F4FA01E8511C
:14360800FE4F008111812281338138C0FA01E451FE4F008101
:14361C0011812281338130C0613061F42E803F8048845984C5
:14363000FA01E851FE4F20823182428253820BC02E803F80DF
:1436440048845984FA01E451FE4F208231824282538281E0FD
:1436580090E0A0E0B0E02091192330911A2300911723109187
:14366C001823080F191F2A1F3B1F0E94C738A02E0FEF1FEFA2
:143680002FEF3FEF0C94B34F0E94514E0E948D4F6A974090B8
:143694000B2350900C232090092330900A232E8A3F8A488EC5
:1436A800598E222420928929A6C10E891F89288D398D9FDEDF
:1436BC000A8B1B8B2C8B3D8B80E08E878F87888B898B5AC173
:1436D0002E843F84488859880A891B892C893D89020D131DCF
:1436E400241D351D0E947A38EE24FF2431C185E393E257018F
:1436F800A80EB91EF5012080222041F48CA1813011F0823093
:14370C0019F4002711277CC1F5018081853E09F418C1838568
:143720008F3009F414C18CA1813019F0853E09F0F3C0CC24BE
:1437340010C0EC2DFF270EA01FA0E00DF11D2080EC2DFF272B
:14374800EA0DFB1D3080321409F004C0C3948C2D8B3068F385
:14375C008C2D8B3009F0F5C08CA1813009F045C02E843F84E6
:14377000488859886A887B888C889D88620C731C841C951C18
:1437840060921B2370921C2380921D2390921E23170144248B
:14379800552420921F23309220234092212350922223F50178
:1437AC00228C338C442455246488758888249924430166249B
:1437C000772462287328842895286092272370922823809231
:1437D400292390922A23248C358C468C578C20922323309246
:1437E800242340922523509226238F010BC1F501228C338C82
:1437FC0044245524749660807180882499244301662477242B
:1438100062287328842895286E827F828886998685EEF5018F
:1438240080832E843F84488859880A891B892C893D89020DA6
:14383800131D241D351D0E94C738F501248C358C468C578CFC
:14384C0048825982910100270E949C2580E0888389838A8323
:143860008B83222702E07FDE0E8B1F8B288F398F2E883F887F
:14387400488C598C6E807F8088849984621473048404950463
:1438880048F413012401288239824A825B8221E002E065DE83
:14389C0022242092892934C080E08A838B838C838D8322249A
:1438B00028820E811F8128853985CFDD0A871B872C873D876A
:1438C40080E08A838B838C838D8381E088830E811F8128850E
:1438D8003985BFDD46EF5FEF6FEF7FE02A843B844C845D8424
:1438EC00421553056405750518F40027112788C02A843B8416
:143900004C845D842E823F824886598620908729222009F049
:14391400C7CF1BC0CC2404C08C2D883001F4C3948C2D8B3049
:14392800C8F3F50123843324822D803161F0883051F0248C82
:14393C00358C468C578C48825982910100270E943425C701E0
:1439500080967C012090112330901223E214F30408F4C7CE79
:1439640041E050E060E070E02E843F8448885988240E351EC3
:14397800461E571E2E863F86488A598A209013233090142357
:14398C00442455246E847F8488889988621473048404950412
:1439A00008F496CE80E08A838B838C838D83222428820E8992
:1439B4001F89288D398D4FDD0E8B1F8B288F398F46EF5FEF6B
:1439C8006FEF7FE02E883F88488C598C421553056405750566
:1439DC0018F40027112714C02E883F88488C598C8894222004
:1439F00032044204520419F40027112707C02090872922201C
:143A040009F055CE002711276A960E94824F249608950E94C7
:143A18008D4F5901C02E6A9780E08E838F838887898785014D
:143A2C00B1D0E02E002311F002E0A9C0950101E025DE5801B5
:143A40000030010711F40027A0C08C2D813011F401E09BC003
:143A5400F501228C338C4424552474966080718088249924D6
:143A680043016624772462287328842895286A8A7B8A8C8A44
:143A7C009D8AF5017C9620803180428053802A863B864C86DE
:143A90005D8622242092892972C00A891B892C893D89ABDC2A
:143AA4000E871F87288B398BAA2441C02A2C332444245524FF
:143AB8000E851F8528893989020D131D241D351D0E947A382A
:143ACC00CC24DD242AC02E803F80488459842E8A3F8A488E9E
:143AE000598E41E050E060E070E02E883F88488C598C240EA2
:143AF400351E461E571E2E823F82488659862A843B844C8437
:143B08005D846E887F88888C998C621473048404950410F084
:143B1C00002735C0C60101966C01C6018030E2E09E0788F256
:143B3000A39420901323309014234A2C55244214530408F4D5
:143B4400B5CF80E08A838B838C838D83222428820A891B8928
:143B58002C893D897EDC0A8B1B8B2C8B3D8B2A883B884C8881
:143B6C005D888894222032044204520411F4002706C020908E
:143B80008729222009F089CF00276A960C94824F0E94AC4FB9
:143B9400A097442709C0E42FFF27E00FF11F80818E3209F4BC
:143BA80003C043954C30A8F366270CC0E62FFF27E00FF11FC4
:143BBC002080CE01E62FFF27E80FF91F20826395641790F3A4
:143BD000642F08C0CE01E62FFF27E80FF91F80E28083639510
:143BE40087E08617A8F7439568E023C0E42FFF27E00FF11FEF
:143BF80020802220C9F0242E33244F5FE22DFF27E00FF11F93
:143C0C002080CE01E62FFF27E80FF91F20820CC0262E3324D2
:143C20006F5FCE01E22DFF27E80FF91F80E280836B30A0F31C
:143C340063956B30D8F2442716C0CE01E42FFF27E80FF91FC7
:143C480060817727613660F08AE7861748F0CE01A42EBB243C
:143C5C00A80EB91EF50180818052808343954B3040F344270A
:143C70000CC0CE01E42FFF27E80FF91F2080E42FFF27E00F95
:143C8400F11F208243954B3090F30027A0960C94B34F0E9403
:143C98008D4FEC9700240FA60FAA0AAA0BAE0AAE11240BAA18
:143CAC001CAA0DAA1EAA2090482733242E823F8220904C27B5
:143CC00033242C823D8220904D2733242A823B8220904E2723
:143CD4003324288239822EEE30E28E01085F1F4F0E94BF58D5
:143CE80025E030E000914D2711270E942E5020904C273324DC
:143CFC00200E311E29E030E000914E2711270C5E1F4F0E9466
:143D10002E50200E311E2DA63EA625E030E00091492711279F
:143D24000E942E5020904A27332435942794200E311E2BE0E7
:143D380030E00091482711270E942E50200E311E28AA39AADD
:143D4C009E01285F3F4F01E060DEA02EBB24AA2019F4BB2031
:143D600009F488C0C5018130E0E09E0731F08230E0E09E07F6
:143D740009F470C0FAC08FEF8BAF2091112330911223009130
:143D88001323109114230E94324F1801442455242091252303
:143D9C003091262300912323109124235A924A923A922A92FA
:143DB0000E949C4E0BA31CA32DA33EA34090292350902A230C
:143DC40020902723309028236BA07CA08DA09EA0620C731C57
:143DD800841C951C6F8A788E898E9A8E20901323309014236B
:143DEC00442455240BA11CA12DA13EA15A924A923A922A927C
:143E00000E94424F2090112330901223442455245A924A92F9
:143E14003A922A920E94424F409025235090262320902323A8
:143E280030902423201A310A420A530A609011237090122308
:143E3C00882499249A928A927A926A92810192010E949C4E18
:143E50000AAB8FEF8AAF8BC02090E32283E0829D81EF92E28C
:143E6400F001E80FF91F2224208220928729CAC380E0888308
:143E780089838A838B83222702E071DB0F8B188F298F3A8FD6
:143E8C0040900F235090102320900D2330900E236F88788C41
:143EA000898C9A8C261437044804590460F440900B23509083
:143EB4000C232090092330900A232F8A388E498E5A8E0F892C
:143EC800188D298D3A8D9FD30F8B188F298F3A8F2F88388C15
:143EDC00498C5A8C8894222032044204520471F42090E322CD
:143EF00083E0829D81EF92E2F001E80FF91F222420822092BE
:143F0400872980C38FEF8A838B838C838FE08D8381E0888323
:143F18000F89188D298D3A8D9CDA40E050E06FEF7FEF2F8892
:143F2C00388C498C5A8C242235224622572212012BAA3CAAB6
:143F40004FEF5FEF60E070E02F88388C498C5A8C242235227E
:143F5400462257222DAA3EAA80E08093232380932423809393
:143F68002523809326230024112408AE19AE9AC10AAC00209A
:143F7C00A9F100240AAE0F89188D298D3A8D37DA2AA83324C7
:143F90004424552438014901620C731C841C951C60922B232B
:143FA40070922C2380922D2390922E23830194010E947A3876
:143FB800209011233090122344245524209125233091262338
:143FCC0000912323109124235A924A923A922A920E949E4E44
:143FE0000BA71CA7CAA812C00F89188D298D3A8D04DA0093E9
:143FF4002B2310932C2320932D2330932E23002411240BA658
:144008001CA6CC248FA9813029F52BA43CA4C10101968BA7B1
:14401C009CA785E393E2F101E80FF91F8AE0808341E050E0B1
:1440300060E070E040902523509026232090232330902423AE
:14404400240E351E461E571E209223233092242340922523EF
:144058005092262300240FAA88E495E2E8ADF9ADE80FF91F1F
:14406C00A08088AD99AD019688AF99AFEBA4FCA4C701019601
:144080008BA79CA785E393E2F701E80FF91FA08241E050E060
:1440940060E070E0409025235090262320902323309024234A
:1440A800240E351E461E571E2092232330922423409225238B
:1440BC00509226238A2D8D3079F58BA59CA58030E2E09E075B
:1440D00021F4002403940FAA25C0EBA4FCA4C70101968BA7AE
:1440E4009CA785E393E2F701E80FF91F8AE0808341E050E0E3
:1440F80060E070E040902523509026232090232330902423E6
:14410C00240E351E461E571E20922323309224234092252326
:14412000509226238BA59CA58030E2E09E0798F100241124F6
:144134000BA61CA620912D2330912E2300912B2310912C2322
:144148000E94C738E02EC39420901323309014234C2C55248F
:14415C004214530411F4CC241CC041E050E060E070E0409020
:144170002D2350902E2320902B2330902C23240E351E461EC4
:14418400571E20922B2330922C2340922D2350922E238A2D95
:144198008E3709F037CF8A2D8E3709F03EC041E050E060E04B
:1441AC0070E040902523509026232090232330902423241A33
:1441C000350A460A570A2092232330922423409225235092FE
:1441D40026238BA59CA501978BA79CA70DC085E393E2EBA5D6
:1441E800FCA5E80FF91F222420828BA59CA501968BA79CA7AE
:1441FC008BA59CA58030E2E09E0768F320912D2330912E23B9
:1442100000912B2310912C230E94C738A02EEA2C46C02F8889
:14422400388C498C5A8C2B8E3C8E4D8E5E8E0B8D1C8D2D8DC2
:144238003E8DE9D10F8B188F298F3A8F2F88388C498C5A8CF5
:14424C008894222032044204520471F42090E32283E0829D92
:1442600081EF92E2F001E80FF91F2224208220928729CAC191
:144274002F88388C498C5A8C2A823B824C825D8281E088837E
:144288000B8D1C8D2D8D3E8DE4D88FEF8A838B838C838FE089
:14429C008D8381E088830F89188D298D3A8DD7D865CE2F883F
:1442B000388C498C5A8C288239824A825B8221E002E051D960
:1442C4000BAC002009F460C020911D2330911E2300911B2330
:1442D80010911C230E947A3885E393E2A0901F23B0902023CC
:1442EC00A80EB91E22243324F501228A338A08A819A8068A34
:14430000178A0DA41EA4008E118E7C96208031804280538070
:14431400809025239090262360902323709024236218730862
:14432800840895086F8E78A289A29AA2409025235090262399
:14433C002090232330902423F501248E358E468E578E20919B
:144350001D2330911E2300911B2310911C230E94C7382F8C0C
:1443640038A049A05AA048825982910101E0E2D32090E32208
:1443780083E0829D81EF92E2F001E80FF91F222420823EC1E4
:14438C0040900B2350900C232090092330900A232B8E3C8EC4
:1443A0004D8E5E8E30C10B8D1C8D2D8D3E8D25D80B8B1C8B51
:1443B4002D8B3E8B00240AAAA0C02AA83324442455240B899E
:1443C8001C892D893E89020D131D241D351D0E947A38002475
:1443DC0011240BA61CA680C085E393E2ABA4BCA4A80EB91ECC
:1443F0000FA4002061F02090E32283E0829D81EF92E2F00189
:14440400E80FF91F22242082FDC0F501E080FF24EE2021F058
:144418008E2D853E09F05DC0CC240DC0CE010896EC2DFF2793
:14442C00E80FF91F2080EC2DFF27EA0DFB1D2082C3948C2DCD
:144440008B3080F380E2F501838722242486258608A819A8CC
:14445400068617860DA41EA4008A118A028A138A08A819A8F9
:14446800068A178A0DA41EA4008E118E0BA81CA8048A158ACB
:14447C000DA81EA8028E138E40902523509026232090232349
:14449000309024237C9620823182428253822AA83324442480
:1444A40055240B891C892D893E89020D131D241D351D0E9461
:1444B800C738002403940FA64090252350902623209023234A
:1444CC003090242348825982910101E02FD38BA59CA5809634
:1444E0008BA79CA720901123309012230BA41CA402141304DE
:1444F40008F476CF0AA803940AAA20901323309014234AA8A7
:1445080055244214530408F456CF80E08A838B838C838D83BE
:14451C00222428820B8D1C8D2D8D3E8D0E942D1A0F8B188FAB
:14453000298F3A8F46EF5FEF6FEF7FE02F88388C498C5A8C80
:14454400421553056405750508F03DC04FEF5FEF6FEF7FE093
:14455800241635064606570641F50B8D1C8D2D8D3E8D51D014
:14456C000F8B188F298F3A8F2F88388C498C5A8C2A823B82DA
:144580004C825D8281E088830B8D1C8D2D8D3E8D0E942D1A5F
:144594008FEF8A838B838C838FE08D8381E088830F89188D43
:1445A800298D3A8D0E942D1A0CC02090E32283E0829D81EF26
:1445BC0092E2F001E80FF91F222420821FC02F88388C498C60
:1445D0005A8C8894222032044204520461F42090E32283E054
:1445E400829D81EF92E2F001E80FF91F2224208209C02F8858
:1445F800388C498C5A8C2B8E3C8E4D8E5E8ECFCEEC960C9427
:14460C00824F0E94514E0E94C84F28974FE750E060E070E01A
:14462000288839884A885B88242235224622572268887988F1
:144634008A889B886218730884089508688A798A8A8A9B8AF1
:14464800288839884A885B88288239824A825B8275C082E093
:14465C0090E0088119812A813B818A930E9435502090112328
:1446700030901223442455245A924A923A922A920E949C4E84
:144684002090152330901623442455248090192390901A23B7
:144698006090172370901823620C731C841C951C600E711E5E
:1446AC00821E931E6C827D828E829F820C811D812E813F81F1
:1446C0000E947A38AA242BC085E393E2CA2CDD24CC0CDD1C34
:1446D400CC0CDD1CC80ED91E4FEF5FEF6FEF7FE0F601208054
:1446E800318042805380242235224622572288942220320466
:1446FC004204520469F42A2C332444245524088119812A8155
:144710003B81020D131D241D351D2AC0A3948A2D803890F2F5
:1447240040E850E060E070E0288039804A805B80240E351E0E
:14473800461E571E288239824A825B8240900F235090102371
:14474C0020900D2330900E23688079808A809B806214730495
:144760008404950408F479CF00E010E020E030E028960E94A0
:14477400D14F249608950E94C84F6C97209013233090142321
:144788004424552420910F233091102300910D2310910E23D2
:14479C005A924A923A922A920E94424F8AE090E08A930E94ED
:1447B00048500C8B1D8B2E8B3F8B209011233090122344245A
:1447C40055240C891D892E893F895A924A923A922A920E94BC
:1447D800424F0C8B1D8B2E8B3F8B2C883D884E885F8848827A
:1447EC005982910101E03AD180E0888389838A838B83222785
:1448000001E00E94B31A088719872A873B8740900F235090D0
:14481400102320900D2330900E23688479848A849B8426143C
:1448280037044804590408F0CFC022242092E42280E08887A4
:14483C0089878A878B8780E08C838D838E838F8340900B2395
:1448500050900C232090092330900A232C863D864E865F864E
:14486400222420928929ADC082E090E00C851D852E853F85AD
:144878008A930E9435502090112330901223442455245A9242
:14488C004A923A922A920E949C4E20901523309016234424DF
:1448A00055248090192390901A236090172370901823620C0F
:1448B400731C841C951C600E711E821E931E688A798A8A8AB9
:1448C8009B8A088919892A893B890E947A38AA24BB2459C0F3
:1448DC0085E393E26501CC0CDD1CCC0CDD1CC80ED91E4FEFD8
:1448F0005FEF6FEF7FE0F6012080318042805380242235222F
:14490400462257228894222032044204520481F441E050E0C8
:1449180060E070E0288439844A845B84240E351E461E571E87
:14492C00288639864A865B8641E050E060E070E02C803D800F
:144940004E805F80240E351E461E571E2C823D824E825F823A
:1449540042E050E060E070E040900F235090102320900D2378
:1449680030900E23240E351E461E571E6C807D808E809F80D6
:14497C00621473048404950409F409C0C50101965C01C501D3
:144990008038E0E09E0708F4A1CFC5018038E0E09E0708F4AB
:1449A40015C040E850E060E070E02C843D844E845F84240EEA
:1449B800351E461E571E2C863D864E865F86209087292220EF
:1449CC0009F04ECF2090E422222061F4288439844A845B845E
:1449E000288239824A825B8221E001E00E94B31A81E08093F0
:1449F400E422209013233090142344245524088519852A8511
:144A08003B855A924A923A922A920E94424F8AE090E08A9360
:144A1C000E944850088F198F2A8F3B8F2090112330901223B1
:144A300044245524088D198D2A8D3B8D5A924A923A922A9287
:144A44000E94424F088F198F2A8F3B8F288C398C4A8C5B8C33
:144A580048825982910101E003D06C960C94D14F3A932A9313
:144A6C004A936A93402F6CE045C0653011F0693049F484E3C9
:144A800095E2E62FFF27E80FF91F8CE280836A958AE090E017
:144A9400A0E0B0E00A811B812C813D81BA93AA939A938A9398
:144AA8000E949E4E18012901E22DE0632E2E84E395E2E62F88
:144ABC00FF27E80FF91F20828AE090E0A0E0B0E00A811B81FE
:144AD0002C813D81BA93AA939A938A930E949C4E0A831B83DC
:144AE4002C833D832A803B804C805D80889422203204420467
:144AF800520409F405C06A9580E0861708F4B7CF413019F496
:144B0C008BE48093422569914991229608950E94934F5801A6
:144B2000850136D8C02E002309F004C0950102E00E94441BA6
:144B34000C94764F3A932A930E94AC4FA02E28974FEF51E0E5
:144B480060E070E02E843F8448885988242235224622572225
:144B5C008894222032044204520471F489E090E00E851F85A0
:144B7000288939898A930E9448500E871F87288B398B17C0DE
:144B840089E090E00E851F85288939898A930E94485018012A
:144B9800290141E050E060E070E0240E351E461E571E2E86EC
:144BAC003F86488A598A2E843F8448885988EF93E22DE7706D
:144BC000EF9161F483E090E0810192018A930E9448500E8738
:144BD4001F87288B398B17C083E090E00E851F85288939895C
:144BE8008A930E9448501801290141E050E060E070E0240E0C
:144BFC00351E461E571E2E863F86488A598A2090E422222053
:144C100009F43CC080E0888389838A838B83222701E00E9439
:144C2400B31A0C831D832E833F83AA2089F42E843F84488881
:144C380059886C807D808E809F80620C731C841C951C6C8235
:144C4C007D828E829F8210C02E843F84488859886C807D8045
:144C60008E809F8062187308840895086C827D828E829F82D7
:144C74002C803D804E805F80288239824A825B8221E001E026
:144C88000E94B31A28960E94B34F229608950E94934FEF97E8
:144C9C00EF97EF9765972090E32283E0829D81EF92E2F001F0
:144CB000E80FF91F2080222009F0B4C12090A729822D9927A2
:144CC4009595879595958795959587958170907080308907D9
:144CD80009F0A4C1822D99279595879595958795817090707E
:144CEC008030890709F098C120908929822D8F5F809389295E
:144D000088EC821528F40E94EA3622242092892920908729AC
:144D1400222009F485C1A090A6298A2D992795958795817059
:144D28009070FE01E05BFF4F918380838A2D99278170907070
:144D3C00FE01E25BFF4F918380834090F6295090F729209023
:144D5000F4293090F529FE01E65BFF4F2082318242825382D8
:144D64004090F2295090F3292090F0293090F129FE01EA5B6D
:144D7800FF4F20823182428253824090EE295090EF2920905C
:144D8C00EC293090ED29FE01EE5BFF4F2082318242825382A4
:144DA0004090E2295090E3292090E0293090E129FE01FE9622
:144DB40020823182428253824090EA295090EB292090E82965
:144DC8003090E9292AAE3BAE4CAE5DAE4090E6295090E72970
:144DDC002090E4293090E5292EAA3FAA48AE59AE4090D229AF
:144DF0005090D3292090D0293090D1292AAA3BAA4CAA5DAABA
:144E04004090CE295090CF292090CC293090CD292EA63FA6E7
:144E180048AA59AA4090CA295090CB292090C8293090C929A7
:144E2C002AA63BA64CA65DA62090C6293090C72928A639A6D0
:144E40002090C4293090C5292EA23FA22090C2293090C3291B
:144E54002CA23DA24090C0295090C1292090BE293090BF29DB
:144E680028A239A24AA25BA24090BC295090BD292090BA299A
:144E7C003090BB292C8E3D8E4E8E5F8E4090DA295090DB2979
:144E90002090D8293090D929288E398E4A8E5B8E4090DE2986
:144EA4005090DF292090DC293090DD292C8A3D8A4E8A5F8A59
:144EB8004090DA295090DB292090D8293090D929288A398A47
:144ECC004A8A5B8A22E030E000914B2711270E94664E0E87E1
:144EE0001F8720904A2733242C863D862090492733242A8604
:144EF4003B862090482733242886398680914E2799278053ED
:144F0800984F8E839F8320904D2733242C823D8220904C2770
:144F1C0033242A823B8283E692E2888399832EE530E28E0109
:144F30000E5A1F4F0E94BF58222420926322AA2465C080915D
:144F44006122909162228F3FE1E09E0790F4CE018E5A9F4FD4
:144F5800EA2DFF27E80FF91F208088E495E2E0916122F09101
:144F6C006222E80FF91F208241C02224332420926122309267
:144F800062221BC0CE018E5A9F4FEA2DFF27E80FF91F20802D
:144F940083E692E2E0916122F0916222E80FF91F2082A3944B
:144FA8008091612290916222019680936122909362228E0159
:144FBC000E5A1F4F0E941F4E68012A2C332402151305D0F6F1
:144FD0008EE780934727222420926122309262222090E32261
:144FE40083E0829D81EF92E2F001E80FF91F81E0808316C019
:144FF800A39480916122909162220196809361229093622261
:14500C008E010E5A1F4F0E941F4E68012A2C332402151305D7
:1450200008F08FCFEF96EF96EF9665960C94764F84E792E05A
:145034008093032390930423089522242092022A81E08093B0
:145048006506809186288E7F809386288D7F809386288460AB
:14505C008093862833242092E6223092E7222092E822309225
:14507000E9222092EA223092EB222092EC223092ED22209251
:14508400EE223092EF228091A7299927959587959595879508
:145098009595879595958795817090708030890791F0209016
:1450AC00A8293090A92932FE07C082E792E08093032390935F
:1450C000042305C08091A72988608093A72908952090E622EF
:1450D4003090E722C10101968093E6229093E72281010431A8
:1450E800E0E01E0731F184E190E0821593052CF00A30E0E093
:1450FC001E0771F034C00D32E0E01E07E1F00D32E0E01E070D
:1451100064F10436E0E01E0709F127C080918628817039F459
:1451240082E690E08093E6229093E72231C084E080934606A4
:145138002DC084E08093450629C084E08093460680E2809393
:14514C00460688E08093460681E0809365061CC080E792E0A8
:14516000809303239093042315C084E690E02090E622309091
:14517400E7228215930564F4222433242092E6223092E72275
:1451880084E792E0809303239093042308954A935A9308EE56
:14519C0012E20E946A33809186288D7F8093862881E08093CC
:1451B00066062090E8223090E922C10101968093E822909361
:1451C400E922A1014733E0E05E0709F4B6C087E390E08215A7
:1451D80093050CF434C04E31E0E05E0709F481C08EE190E076
:1451EC0084179507D4F04130E0E05E0709F455C04130E0E0DB
:145200005E070CF46BC14A30E0E05E0709F461C04C30E0E010
:145214005E0709F460C04F30E0E05E0709F45FC05BC14D32A9
:14522800E0E05E0709F461C04D32E0E05E070CF451C1423304
:14523C00E0E05E0709F466C04BC14634E0E05E0709F4BCC0F2
:1452500086E490E08417950784F04C33E0E05E0709F484C0E0
:145264004C33E0E05E070CF437C14134E0E05E0709F491C0B2
:1452780031C1483CE0E05E0709F4D0C088EC90E084179507DF
:14528C0034F04B34E0E05E0709F4AFC021C1423DE0E05E0754
:1452A00009F40FC11BC1809186288170813039F488E290E0E9
:1452B4008093E8229093E9221EC184E08093460680E1809385
:1452C800460680E28093460614C180E18093450610C180E1FF
:1452DC00809346060CC184E08093450608C184E08093460644
:1452F00004C180E28093460688E08093460622242092022A39
:1453040080918628816080938628F5C024E233E007E818E27D
:145318000E94E85307E818E20E94A53B81E08093022A809188
:14532C00E8229091E92201968093E8229093E922DEC024E2B1
:1453400033E007E818E20E94E85307E818E20E94A53B81E0B4
:145354008093022A8091E8229091E92201968093E8229093E8
:14536800E922C7C026EB32E007E818E20E94E85307E818E2CD
:14537C000E94A53B81E08093022A8091E8229091E92201961D
:145390008093E8229093E922B0C023E838E007E818E20E94A0
:1453A400E85307E818E20E94A53B81E08093022A8091E82294
:1453B8009091E92201968093E8229093E92299C02AEB38E04D
:1453CC0007E818E20E94E85307E818E20E94A53B81E0809328
:1453E000022A8091E8229091E92201968093E8229093E92264
:1453F40082C02FEC3CE007E818E20E94E85307E818E20E94DB
:14540800A53B81E08093022A8091E8229091E922019680931F
:14541C00E8229093E9226BC02090A8293090A92932FE32C0E4
:145430002090A729822D9927959587959595879595958795A7
:1454440095958795817090708030890769F4822D99279595E7
:14545800879595958795959587958170907080308907A1F0D6
:14546C008EEB90E08093E8229093E92221EF38E007E818E2E7
:145480000E94E85307E818E20E94A53B81E08093022A33C03D
:1454940028E239E007E818E20E94E85307E818E20E94A53BB0
:1454A80081E08093022A8091E8229091E92201968093E82255
:1454BC009093E9221CC0222433242092E6223092E72284E745
:1454D00092E080930323909304230FC08CED90E02090E82261
:1454E4003090E9228215930534F4222433242092E822309277
:1454F800E9225991499108954A935A932A970EEE12E20E9417
:14550C006A338091862882608093862881E0809366062090FC
:14552000EE223090EF22C10101968093EE229093EF22A10144
:145534004238E0E05E0709F41EC682E890E0821593050CF4DA
:145548007BC04C33E0E05E0709F487C18CE390E08417950715
:14555C000CF43AC04E31E0E05E0709F447C18EE190E084171E
:145570009507D4F04130E0E05E0709F418C14130E0E05E07C5
:145584000CF4EAC54A30E0E05E0709F427C14C30E0E05E073F
:1455980009F426C14F30E0E05E0709F425C1DAC54233E0E0C0
:1455AC005E0709F436C182E390E08417950734F04D32E0E023
:1455C0005E0709F41DC1CAC54733E0E05E0709F431C1C4C5F1
:1455D4004A35E0E05E0709F4A2C18AE590E084179507B4F005
:1455E8004634E0E05E0709F466C186E490E08417950734F0B7
:1455FC004134E0E05E0709F445C1AAC54035E0E05E0709F4F8
:1456100071C1A4C54E36E0E05E0709F4AEC58EE690E0841753
:14562400950734F04436E0E05E0709F4A4C594C54837E0E015
:145638005E0709F49EC58EC54430E1E05E0709F43CC284E04D
:14564C0091E0841795070CF44FC0443BE0E05E0709F4A6C18B
:14566000453BE0E05E0709F4C0C185EB90E084179507DCF030
:145674004639E0E05E0709F47EC586E990E08417950734F004
:145688004C38E0E05E0709F474C564C5403AE0E05E0709F46A
:14569C005DC1413AE0E05E0709F47EC159C54C3DE0E05E0734
:1456B00009F4C0C14D3DE0E05E0709F4E0C18DED90E0841796
:1456C40095075CF0483CE0E05E0709F490C1493CE0E05E0749
:1456D80009F4A5C13FC5403FE0E05E0709F4CFC1413FE0E0E6
:1456EC005E0709F4E4C134C54435E1E05E0709F445C445358B
:14570000E1E05E0709F470C485E591E0841795070CF42DC03F
:145714004034E1E05E0709F4EFC380E491E084179507C4F078
:145728004E30E1E05E070CF415C585E391E0841795070CF4DF
:14573C000FC584E092E0FA01EE50F140EE0FFF1FE80FF91F1B
:1457500027903690F10109944A34E1E05E0709F4DCC34B347A
:14576400E1E05E0709F4F7C3F7C44836E1E05E0709F486C4AE
:145778004936E1E05E0709F4A1C489E691E0841795075CF0B3
:14578C004E35E1E05E0709F440C44F35E1E05E0709F45BC499
:1457A000DDC44237E1E05E0709F4A3C4D7C480918628817006
:1457B400813039F480E390E08093EE229093EF2209C084E0AC
:1457C8008093460680E18093460680E28093460622242092F5
:1457DC00F929CDC480E180934506C9C480E180934606C5C471
:1457F00084E080934506C1C484E080934606BDC480E28093A5
:14580400460688E08093460622242092022A809186288160B9
:1458180080938628AEC424E233E007E818E20E94E85307E87B
:14582C0018E20E94A53BA3C424E233E007E818E20E94E853A6
:1458400007E818E20E94A53B81E08093022A8091E82290910D
:14585400E92201968093E8229093E9228CC426EB32E007E8F1
:1458680018E20E94E85307E818E20E94A53B81E08093022A4A
:14587C008091E8229091E92201968093E8229093E92275C4B6
:145890002BE533E007E818E20E94E85307E818E20E94A53BB0
:1458A40081E08093022A8091EE229091EF2201968093EE2243
:1458B8009093EF225EC424E03AE007E818E20E94E85307E8B3
:1458CC0018E20E948D3607E818E20E94A53B81E08093022A5E
:1458E0008091EE229091EF2201968093EE229093EF2243C46C
:1458F4002BE33AE007E818E20E94E85307E818E20E94A53B47
:1459080081E08093022A8091EE229091EF2201968093EE22DE
:14591C009093EF222CC422E73AE007E818E20E94E85307E87B
:1459300018E20E948D3607E818E20E94A53B81E08093022AF9
:145944008091EE229091EF2201968093EE229093EF2211C439
:1459580088E08093450629EA3AE007E818E20E94E85307E893
:14596C0018E20E948D3607E818E20E94A53B82E08093022ABC
:145980008091EE229091EF2201968093EE229093EF2288E06A
:145994008093460680918628826080938628EBC388E0809315
:1459A8004606E7C388E08093450620EE3AE007E818E20E947C
:1459BC00E85307E818E20E94A53B83E08093022A8091EE226E
:1459D0009091EF2201968093EE229093EF22809186288D7FD8
:1459E40080938628C8C388E080934606C4C388E0809345064F
:1459F80027E13BE007E818E20E94E85307E818E20E94A53B47
:145A0C0083E08093022A8091EE229091EF2201968093EE22D7
:145A20009093EF22AAC388E08093460622242092E522A3C3A5
:145A340088E0809345062090E522222039F02CEB3BE007E855
:145A480018E20E94E85306C02EE43BE007E818E20E94E853BA
:145A5C0007E818E20E94A53B83E08093022A8091EE229091E7
:145A7000EF2201968093EE229093EF227EC388E0809346061B
:145A84007AC388E0809345062DE536E007E818E20E94E8531D
:145A980007E818E20E94A53B84E08093022A8091EE229091AA
:145AAC00EF2201968093EE229093EF2260C388E080934606FD
:145AC0005CC324E936E007E818E20E94E85307E818E20E943F
:145AD400A53B51C32BEC36E007E818E20E94E85307E818E2EE
:145AE8000E94A53B46C322E037E007E818E20E94E85307E851
:145AFC0018E20E94A53B3BC328E733E107E818E20E94E85333
:145B100007E818E20E94A53B22242092022A2DC38091A62922
:145B2400817039F02FEA33E107E818E20E94E85306C020E397
:145B380035E107E818E20E94E85307E818E20E94A53B17C338
:145B4C008091A629992795958795817090708030890739F005
:145B600027E635E107E818E20E94E85306C02EE935E107E866
:145B740018E20E94E85307E818E20E94A53BFBC224E534E100
:145B880007E818E20E94E85388EE93E0A0E0B0E020919829D8
:145B9C00309199290091962910919729BA93AA939A938A93ED
:145BB0000E94A24E0A831B832C833D8387E898E288839983A5
:145BC4002CE731E207E818E20E94BF5807E818E20E94A53B9A
:145BD800D0C22BE834E107E818E20E94E85340909C295090C4
:145BEC009D2920909A2930909B292A823B824C825D8287E863
:145C000098E28883998324E731E207E818E20E94BF5807E840
:145C140018E20E94A53BAFC222EC34E107E818E20E94E853A6
:145C28004090A4295090A5292090A2293090A3292E823F82A5
:145C3C00488659864090A0295090A12920909E2930909F2965
:145C50002A823B824C825D8287E898E28883998326E631E2FB
:145C640007E818E20E94BF5807E818E20E94A53B82C22AE2CF
:145C78003CE007E818E20E94E8530091B92911270E94B251E6
:145C8C001801290102E119E10E941E4F3A932A931A930A9301
:145CA000810192010E94DD510A831B832C833D8387E898E288
:145CB400888399832EE531E207E818E20E94BF5807E818E204
:145CC8000E94A53B56C226EE33E107E818E20E94E853209090
:145CDC00B6293090B7292A823B8287E898E28883998328E5AF
:145CF00031E207E818E20E94BF5807E818E20E94A53B3BC283
:145D040021E63CE007E818E20E94E85307E818E20E94A53B37
:145D180030C22090A8293090A92925FE07C02DE33DE007E86C
:145D2C0018E20E94E85306C02FE539E007E818E20E94E853D3
:145D400007E818E20E94A53B18C22090A8293090A92922FED7
:145D540007C024E73DE007E818E20E94E85306C02CE438E098
:145D680007E818E20E94E85307E818E20E94A53B00C2209084
:145D7C00A8293090A92923FE07C02BEA3DE007E818E20E940B
:145D9000E85306C02FE539E007E818E20E94E85307E818E222
:145DA4000E94A53BE8C12090A8293090A92924FE07C022EEB4
:145DB8003DE007E818E20E94E85306C02FE539E007E818E218
:145DCC000E94E85307E818E20E94A53BD0C12090A8293090A9
:145DE000A92926FE07C029E13EE007E818E20E94E85306C03E
:145DF4002CE438E007E818E20E94E85307E818E20E94A53B42
:145E0800B8C12090A8293090A92927FE07C020E53EE007E8FC
:145E1C0018E20E94E85306C02FE539E007E818E20E94E853E2
:145E300007E818E20E94A53BA0C12090A8293090A92930FE51
:145E440007C02DE134E107E818E20E94E85306C02CE438E0AC
:145E580007E818E20E94E85307E818E20E94A53B88C120900C
:145E6C00A8293090A92931FE07C027ED38E107E818E20E9411
:145E8000E85306C02FE539E007E818E20E94E85307E818E231
:145E94000E94A53B70C129E337E007E818E20E94E85307E86F
:145EA80018E20E94A53B65C18091A72981608093A7292090EF
:145EBC00222283E0829D81EF92E2F001E80FF91F81E08083C4
:145ED0002091F92933270091B4291091B5290E94324F0093EE
:145EE400AE291093AF292090B4293090B5292092B0293092E0
:145EF800B1293FC18091A729817009F43AC18091EE229091B0
:145F0C00EF2201978093EE229093EF2230C188E080934506CA
:145F200020E737E007E818E20E94E85307E818E20E94A53B1E
:145F340083E08093022A8091EE229091EF2201968093EE22AA
:145F48009093EF22222433242092FA293092FB2910C188E080
:145F5C00809346062090FA293090FB29C10101968093FA298C
:145F70009093FB2988E592E08215930508F0FDC0222420921B
:145F8400022AF9C088E0809345064091F9294F5F4093F929C8
:145F98002090B8294215B8F027EA37E007E818E20E94E85377
:145FAC0007E818E20E94A53B85E08093022A8091EE22909190
:145FC000EF2201968093EE229093EF2206C08EEB90E080930C
:145FD400EE229093EF22222433242092FA293092FB29C9C094
:145FE80088E0809346064091FA295091FB29CA010196809370
:145FFC00FA299093FB2988E592E08417950708F0B6C022245D
:146010002092022AB2C088E0809346062EED37E007E818E24A
:146024000E94E85307E818E20E94A53B8CE08093022A809164
:14603800EE229091EF2201968093EE229093EF222224332487
:14604C002092FA293092FB2992C088E0809346064091FA2978
:146060005091FB29CA0101968093FA299093FB2988E592E069
:146074008417950708F07FC022242092022A7BC088E08093D0
:14608800460625E83BE007E818E20E94E85307E818E20E943F
:14609C00A53B81E08093022A8091EE229091EF220196809373
:1460B000EE229093EF22222433242092FA293092FB295BC025
:1460C40088E0809346064091FA295091FB29CA010196809393
:1460D800FA299093FB2988E592E08417950708F048C02224EE
:1460EC002092022A44C08EE692E080930323909304230EE067
:1461000019E10E941E4F00939A2910939B2920939C2930938A
:146114009D2980E080939E2980939F298093A0298093A129E3
:1461280080E08093A2298093A3298093A4298093A529809174
:14613C00A72984608093A7292090222283E0829D81EF92E25E
:14615000F001E80FF91F81E080830FC082E791E02090EE226E
:146164003090EF228215930534F484E792E0809303239093C6
:1461780004232A965991499108954A935A930CEE12E2A4D29D
:14618C00809186288D7F8093862881E0809366062090EC22D5
:1461A0003090ED22C10101968093EC229093ED22A101443159
:1461B400E0E05E0709F451C084E190E08215930574F04A30C2
:1461C800E0E05E07D1F04A30E0E05E070CF48EC04F30E0E0B1
:1461DC005E0741F189C0453FE0E05E0709F450C0453FE0E0D5
:1461F0005E070CF47FC04232E1E05E0709F460C079C02DEEEC
:1462040032E007E818E20E94E85307E818E20E94A53B81E0E2
:146218008093022A8091EC229091ED2201968093EC22909309
:14622C00ED2271C025E138E007E818E20E94E85307E818E251
:146240000E94A53B81E08093022A8091EC229091ED22019642
:146254008093EC229093ED225AC026E939E007E818E20E9416
:14626800E85307E818E20E94A53B81E08093022A8091EC22BD
:14627C009091ED2201968093EC229093ED2243C020EC31E1D3
:1462900007E818E20E94E85307E818E23ED507E818E20E94AD
:1462A400A53B81E08093022A8091EC229091ED22019680936D
:1462B800EC229093ED2229C026E03DE007E818E20E94E853C0
:1462CC0007E818E224D507E818E20E94A53B81E08093022AD1
:1462E0008091EC229091ED2201968093EC229093ED220FC0A2
:1462F4008CE291E02090EC223090ED228215930534F484E768
:1463080092E080930323909304235991499108954A935A9361
:14631C0024970AEE12E2D8D1809186288D7F8093862881E030
:14633000809366062090EA223090EB22C10101968093EA22D9
:146344009093EB22A1014A30E0E05E0751F04A30E0E05E07F4
:146358000CF43FC04431E0E05E0749F13AC02DEC39E007E843
:14636C0018E20E94E8538FE497E28A839B8387E898E288833B
:14638000998322E531E207E818E20E94BF5807E818E20E94A6
:14639400A53B87E08093022A8091EA229091EB22019680937A
:1463A800EA229093EB2222242092642734C037D004E617E244
:1463BC000E94A53B81E08093022A8091EA229091EB220196C9
:1463D0008093EA229093EB2222C082E390E02090EA22309037
:1463E400EB2282159305CCF4222433242092EA223092EB227F
:1463F8002090A8293090A92932FE07C082E792E08093032373
:14640C009093042306C084E792E08093032390930423249652
:146420005991499108956D978091A629817041F02FEA33E1D4
